{
  "contractName": "Project",
  "abi": [
    {
      "constant": true,
      "inputs": [],
      "name": "name",
      "outputs": [
        {
          "name": "",
          "type": "string"
        }
      ],
      "payable": false,
      "stateMutability": "view",
      "type": "function"
    },
    {
      "constant": true,
      "inputs": [],
      "name": "clientAddress",
      "outputs": [
        {
          "name": "",
          "type": "address"
        }
      ],
      "payable": false,
      "stateMutability": "view",
      "type": "function"
    },
    {
      "constant": true,
      "inputs": [],
      "name": "hourlyRate",
      "outputs": [
        {
          "name": "",
          "type": "uint256"
        }
      ],
      "payable": false,
      "stateMutability": "view",
      "type": "function"
    },
    {
      "constant": true,
      "inputs": [],
      "name": "minutesReported",
      "outputs": [
        {
          "name": "",
          "type": "uint32"
        }
      ],
      "payable": false,
      "stateMutability": "view",
      "type": "function"
    },
    {
      "constant": true,
      "inputs": [],
      "name": "executionDate",
      "outputs": [
        {
          "name": "",
          "type": "uint256"
        }
      ],
      "payable": false,
      "stateMutability": "view",
      "type": "function"
    },
    {
      "constant": true,
      "inputs": [],
      "name": "prepayFractionThousands",
      "outputs": [
        {
          "name": "",
          "type": "uint32"
        }
      ],
      "payable": false,
      "stateMutability": "view",
      "type": "function"
    },
    {
      "constant": false,
      "inputs": [],
      "name": "start",
      "outputs": [],
      "payable": false,
      "stateMutability": "nonpayable",
      "type": "function"
    },
    {
      "constant": true,
      "inputs": [],
      "name": "state",
      "outputs": [
        {
          "name": "",
          "type": "uint8"
        }
      ],
      "payable": false,
      "stateMutability": "view",
      "type": "function"
    },
    {
      "constant": true,
      "inputs": [],
      "name": "endDate",
      "outputs": [
        {
          "name": "",
          "type": "uint256"
        }
      ],
      "payable": false,
      "stateMutability": "view",
      "type": "function"
    },
    {
      "constant": true,
      "inputs": [],
      "name": "timeCapMinutes",
      "outputs": [
        {
          "name": "",
          "type": "uint32"
        }
      ],
      "payable": false,
      "stateMutability": "view",
      "type": "function"
    },
    {
      "constant": true,
      "inputs": [],
      "name": "contractorAddress",
      "outputs": [
        {
          "name": "",
          "type": "address"
        }
      ],
      "payable": false,
      "stateMutability": "view",
      "type": "function"
    },
    {
      "inputs": [
        {
          "name": "_name",
          "type": "string"
        },
        {
          "name": "_clientAddress",
          "type": "address"
        },
        {
          "name": "_hourlyRate",
          "type": "uint256"
        },
        {
          "name": "_timeCapMinutes",
          "type": "uint32"
        },
        {
          "name": "_prepayFractionThousands",
          "type": "uint32"
        }
      ],
      "payable": false,
      "stateMutability": "nonpayable",
      "type": "constructor",
      "constant": true,
      "name": "contractorAddress",
      "outputs": [
        {
          "name": "",
          "type": "address"
        }
      ]
    },
    {
      "inputs": [
        {
          "name": "_name",
          "type": "string"
        },
        {
          "name": "_clientAddress",
          "type": "address"
        },
        {
          "name": "_hourlyRate",
          "type": "uint256"
        },
        {
          "name": "_timeCapMinutes",
          "type": "uint32"
        },
        {
          "name": "_prepayFractionThousands",
          "type": "uint32"
        }
      ],
      "payable": false,
      "stateMutability": "nonpayable",
      "type": "constructor"
    }
  ],
  "bytecode": "0x6060604052341561000f57600080fd5b6040516106eb3803806106eb83398101604052808051820191906020018051906020019091908051906020019091908051906020019091908051906020019091905050846000908051906020019061006892919061013d565b50836001806101000a81548173ffffffffffffffffffffffffffffffffffffffff021916908373ffffffffffffffffffffffffffffffffffffffff1602179055508260048190555081600260186101000a81548163ffffffff021916908363ffffffff16021790555080600260146101000a81548163ffffffff021916908363ffffffff16021790555033600260006101000a81548173ffffffffffffffffffffffffffffffffffffffff021916908373ffffffffffffffffffffffffffffffffffffffff16021790555050505050506101e2565b828054600181600116156101000203166002900490600052602060002090601f016020900481019282601f1061017e57805160ff19168380011785556101ac565b828001600101855582156101ac579182015b828111156101ab578251825591602001919060010190610190565b5b5090506101b991906101bd565b5090565b6101df91905b808211156101db5760008160009055506001016101c3565b5090565b90565b6104fa806101f16000396000f3006060604052600436106100af576000357c0100000000000000000000000000000000000000000000000000000000900463ffffffff16806306fdde03146100b45780632c2ab5ea1461014257806359a7b3fe14610197578063844b3320146101c0578063a761d1b6146101f5578063bb168ab61461021e578063be9a655514610253578063c19d93fb14610268578063c24a0f8b1461029f578063cae3e702146102c8578063f21376af146102fd575b600080fd5b34156100bf57600080fd5b6100c7610352565b6040518080602001828103825283818151815260200191508051906020019080838360005b838110156101075780820151818401526020810190506100ec565b50505050905090810190601f1680156101345780820380516001836020036101000a031916815260200191505b509250505060405180910390f35b341561014d57600080fd5b6101556103f0565b604051808273ffffffffffffffffffffffffffffffffffffffff1673ffffffffffffffffffffffffffffffffffffffff16815260200191505060405180910390f35b34156101a257600080fd5b6101aa610415565b6040518082815260200191505060405180910390f35b34156101cb57600080fd5b6101d361041b565b604051808263ffffffff1663ffffffff16815260200191505060405180910390f35b341561020057600080fd5b610208610431565b6040518082815260200191505060405180910390f35b341561022957600080fd5b610231610437565b604051808263ffffffff1663ffffffff16815260200191505060405180910390f35b341561025e57600080fd5b61026661044d565b005b341561027357600080fd5b61027b610479565b6040518082600381111561028b57fe5b60ff16815260200191505060405180910390f35b34156102aa57600080fd5b6102b261048c565b6040518082815260200191505060405180910390f35b34156102d357600080fd5b6102db610492565b604051808263ffffffff1663ffffffff16815260200191505060405180910390f35b341561030857600080fd5b6103106104a8565b604051808273ffffffffffffffffffffffffffffffffffffffff1673ffffffffffffffffffffffffffffffffffffffff16815260200191505060405180910390f35b60008054600181600116156101000203166002900480601f0160208091040260200160405190810160405280929190818152602001828054600181600116156101000203166002900480156103e85780601f106103bd576101008083540402835291602001916103e8565b820191906000526020600020905b8154815290600101906020018083116103cb57829003601f168201915b505050505081565b6001809054906101000a900473ffffffffffffffffffffffffffffffffffffffff1681565b60045481565b6002601c9054906101000a900463ffffffff1681565b60055481565b600260149054906101000a900463ffffffff1681565b60018060006101000a81548160ff0219169083600381111561046b57fe5b021790555042600581905550565b600160009054906101000a900460ff1681565b60065481565b600260189054906101000a900463ffffffff1681565b600260009054906101000a900473ffffffffffffffffffffffffffffffffffffffff16815600a165627a7a72305820e44a8cfc0602e3802cbde6463df25092a4d2ab39f91f4b54501c2748ad12f7150029",
  "source": "pragma solidity ^0.4.18;\n\ncontract Project {\n\n  enum State {\n    Created,\n    Active,\n    Approved,\n    Cancelled\n  }\n\n  enum Role {\n    Stranger,\n    Contractor,\n    Client\n  }\n\n  string public name;\n  State public state;\n\n  address public clientAddress;\n  address public contractorAddress;\n\n  uint32 public prepayFractionThousands;\n  uint32 public timeCapMinutes;\n\n  uint32 public minutesReported;\n  string private contractorComment;\n\n  uint256 public hourlyRate;\n\n  uint256 public executionDate;\n  uint256 public endDate;\n\n  function Project(\n    string _name,\n    address _clientAddress,\n    uint256 _hourlyRate,\n    uint32 _timeCapMinutes,\n    uint32 _prepayFractionThousands)\n  public {\n    name = _name;\n    clientAddress = _clientAddress;\n    hourlyRate = _hourlyRate;\n    timeCapMinutes = _timeCapMinutes;\n    prepayFractionThousands = _prepayFractionThousands;\n    contractorAddress = msg.sender;\n  }\n\n  function start() external {\n    state = State.Active;\n    executionDate = now;\n  }\n\n  // function getRole() public view returns (Role) {\n  //   if (msg.sender == clientAddress) {\n  //     return Role.Client;\n  //   }\n  //   if (msg.sender == contractorAddress) {\n  //     return Role.Contractor;\n  //   }\n  //   return Role.Stranger;\n  // }\n\n  // function setBillableTime(uint32 timeMinutes, string comment) external {\n  //   minutesReported = timeMinutes;\n  //   contractorComment = comment;\n  // }\n\n  // function approve() external {\n  //   state = State.Approved;\n  //   endDate = now;\n  // }\n\n  // function cancel() external {\n  //   state = State.Cancelled;\n  //   endDate = now;\n  // }\n\n  // function withdraw() external {\n  //   if (this.balance > 0) {\n  //     msg.sender.transfer(this.balance);\n  //   }\n  // }\n\n  // function leaveFeedback(bool positive, string comment) external {\n  //   // TODO\n  // }\n\n}\n",
  "sourcePath": "/Users/sam/dev/projects/append-only-log/hackathon/contracts/Project.sol",
  "compiler": {
    "name": "solc",
    "version": "0.4.18+commit.9cf6e910.Emscripten.clang"
  },
  "schemaVersion": "1.0.1",
  "updatedAt": "2017-11-12T09:22:11.465Z"
}