{
  "contractName": "Project",
  "abi": [
    {
      "constant": true,
      "inputs": [],
      "name": "name",
      "outputs": [
        {
          "name": "",
          "type": "string"
        }
      ],
      "payable": false,
      "stateMutability": "view",
      "type": "function"
    },
    {
      "constant": false,
      "inputs": [
        {
          "name": "timeMinutes",
          "type": "uint32"
        },
        {
          "name": "comment",
          "type": "string"
        }
      ],
      "name": "setBillableTime",
      "outputs": [],
      "payable": false,
      "stateMutability": "nonpayable",
      "type": "function"
    },
    {
      "constant": false,
      "inputs": [],
      "name": "approve",
      "outputs": [],
      "payable": false,
      "stateMutability": "nonpayable",
      "type": "function"
    },
    {
      "constant": true,
      "inputs": [],
      "name": "clientAddress",
      "outputs": [
        {
          "name": "",
          "type": "address"
        }
      ],
      "payable": false,
      "stateMutability": "view",
      "type": "function"
    },
    {
      "constant": false,
      "inputs": [],
      "name": "withdraw",
      "outputs": [],
      "payable": false,
      "stateMutability": "nonpayable",
      "type": "function"
    },
    {
      "constant": true,
      "inputs": [],
      "name": "availableForWithdraw",
      "outputs": [
        {
          "name": "",
          "type": "uint256"
        }
      ],
      "payable": false,
      "stateMutability": "view",
      "type": "function"
    },
    {
      "constant": true,
      "inputs": [],
      "name": "hourlyRate",
      "outputs": [
        {
          "name": "",
          "type": "uint256"
        }
      ],
      "payable": false,
      "stateMutability": "view",
      "type": "function"
    },
    {
      "constant": true,
      "inputs": [],
      "name": "minutesReported",
      "outputs": [
        {
          "name": "",
          "type": "uint32"
        }
      ],
      "payable": false,
      "stateMutability": "view",
      "type": "function"
    },
    {
      "constant": true,
      "inputs": [],
      "name": "lastActivityDate",
      "outputs": [
        {
          "name": "",
          "type": "uint256"
        }
      ],
      "payable": false,
      "stateMutability": "view",
      "type": "function"
    },
    {
      "constant": true,
      "inputs": [],
      "name": "executionDate",
      "outputs": [
        {
          "name": "",
          "type": "uint256"
        }
      ],
      "payable": false,
      "stateMutability": "view",
      "type": "function"
    },
    {
      "constant": true,
      "inputs": [],
      "name": "prepayFractionThousands",
      "outputs": [
        {
          "name": "",
          "type": "uint32"
        }
      ],
      "payable": false,
      "stateMutability": "view",
      "type": "function"
    },
    {
      "constant": false,
      "inputs": [],
      "name": "start",
      "outputs": [],
      "payable": true,
      "stateMutability": "payable",
      "type": "function"
    },
    {
      "constant": true,
      "inputs": [],
      "name": "state",
      "outputs": [
        {
          "name": "",
          "type": "uint8"
        }
      ],
      "payable": false,
      "stateMutability": "view",
      "type": "function"
    },
    {
      "constant": true,
      "inputs": [],
      "name": "endDate",
      "outputs": [
        {
          "name": "",
          "type": "uint256"
        }
      ],
      "payable": false,
      "stateMutability": "view",
      "type": "function"
    },
    {
      "constant": true,
      "inputs": [],
      "name": "timeCapMinutes",
      "outputs": [
        {
          "name": "",
          "type": "uint32"
        }
      ],
      "payable": false,
      "stateMutability": "view",
      "type": "function"
    },
    {
      "constant": false,
      "inputs": [
        {
          "name": "positive",
          "type": "bool"
        },
        {
          "name": "comment",
          "type": "string"
        }
      ],
      "name": "leaveFeedback",
      "outputs": [],
      "payable": false,
      "stateMutability": "nonpayable",
      "type": "function"
    },
    {
      "constant": false,
      "inputs": [],
      "name": "cancel",
      "outputs": [],
      "payable": false,
      "stateMutability": "nonpayable",
      "type": "function"
    },
    {
      "constant": true,
      "inputs": [],
      "name": "contractorAddress",
      "outputs": [
        {
          "name": "",
          "type": "address"
        }
      ],
      "payable": false,
      "stateMutability": "view",
      "type": "function"
    },
    {
      "constant": true,
      "inputs": [],
      "name": "getRole",
      "outputs": [
        {
          "name": "",
          "type": "uint8"
        }
      ],
      "payable": false,
      "stateMutability": "view",
      "type": "function"
    },
    {
      "constant": true,
      "inputs": [],
      "name": "prepayWithdrawn",
      "outputs": [
        {
          "name": "",
          "type": "bool"
        }
      ],
      "payable": false,
      "stateMutability": "view",
      "type": "function"
    },
    {
      "inputs": [
        {
          "name": "_name",
          "type": "string"
        },
        {
          "name": "_clientAddress",
          "type": "address"
        },
        {
          "name": "_hourlyRate",
          "type": "uint256"
        },
        {
          "name": "_timeCapMinutes",
          "type": "uint32"
        },
        {
          "name": "_prepayFractionThousands",
          "type": "uint32"
        }
      ],
      "payable": false,
      "stateMutability": "nonpayable",
      "type": "constructor"
    }
  ],
  "bytecode": "0x60606040526000600360006101000a81548160ff02191690831515021790555042600655341561002e57600080fd5b60405161111e38038061111e833981016040528080518201919060200180519060200190919080519060200190919080519060200190919080519060200190919050506103e88163ffffffff161115151561008857600080fd5b846000908051906020019061009e929190610173565b50836001806101000a81548173ffffffffffffffffffffffffffffffffffffffff021916908373ffffffffffffffffffffffffffffffffffffffff1602179055508260058190555081600260186101000a81548163ffffffff021916908363ffffffff16021790555080600260146101000a81548163ffffffff021916908363ffffffff16021790555033600260006101000a81548173ffffffffffffffffffffffffffffffffffffffff021916908373ffffffffffffffffffffffffffffffffffffffff1602179055505050505050610218565b828054600181600116156101000203166002900490600052602060002090601f016020900481019282601f106101b457805160ff19168380011785556101e2565b828001600101855582156101e2579182015b828111156101e15782518255916020019190600101906101c6565b5b5090506101ef91906101f3565b5090565b61021591905b808211156102115760008160009055506001016101f9565b5090565b90565b610ef7806102276000396000f300606060405260043610610112576000357c0100000000000000000000000000000000000000000000000000000000900463ffffffff16806306fdde03146101175780630e40de31146101a557806312424e3f146101e25780632c2ab5ea146101f75780633ccfd60b1461024c5780634d947d591461026157806359a7b3fe1461028a578063844b3320146102b357806391294e54146102e8578063a761d1b614610311578063bb168ab61461033a578063be9a65551461036f578063c19d93fb14610379578063c24a0f8b146103b0578063cae3e702146103d9578063d900f2d61461040e578063ea8a1af014610447578063f21376af1461045c578063fde08174146104b1578063ff113182146104e8575b600080fd5b341561012257600080fd5b61012a610515565b6040518080602001828103825283818151815260200191508051906020019080838360005b8381101561016a57808201518184015260208101905061014f565b50505050905090810190601f1680156101975780820380516001836020036101000a031916815260200191505b509250505060405180910390f35b34156101b057600080fd5b6101e0600480803563ffffffff1690602001909190803590602001908201803590602001919091929050506105b3565b005b34156101ed57600080fd5b6101f5610683565b005b341561020257600080fd5b61020a610750565b604051808273ffffffffffffffffffffffffffffffffffffffff1673ffffffffffffffffffffffffffffffffffffffff16815260200191505060405180910390f35b341561025757600080fd5b61025f610775565b005b341561026c57600080fd5b6102746107d5565b6040518082815260200191505060405180910390f35b341561029557600080fd5b61029d610a77565b6040518082815260200191505060405180910390f35b34156102be57600080fd5b6102c6610a7d565b604051808263ffffffff1663ffffffff16815260200191505060405180910390f35b34156102f357600080fd5b6102fb610a93565b6040518082815260200191505060405180910390f35b341561031c57600080fd5b610324610a99565b6040518082815260200191505060405180910390f35b341561034557600080fd5b61034d610a9f565b604051808263ffffffff1663ffffffff16815260200191505060405180910390f35b610377610ab5565b005b341561038457600080fd5b61038c610bbb565b6040518082600381111561039c57fe5b60ff16815260200191505060405180910390f35b34156103bb57600080fd5b6103c3610bce565b6040518082815260200191505060405180910390f35b34156103e457600080fd5b6103ec610bd4565b604051808263ffffffff1663ffffffff16815260200191505060405180910390f35b341561041957600080fd5b610445600480803515159060200190919080359060200190820180359060200191909192905050610bea565b005b341561045257600080fd5b61045a610c59565b005b341561046757600080fd5b61046f610d26565b604051808273ffffffffffffffffffffffffffffffffffffffff1673ffffffffffffffffffffffffffffffffffffffff16815260200191505060405180910390f35b34156104bc57600080fd5b6104c4610d4c565b604051808260028111156104d457fe5b60ff16815260200191505060405180910390f35b34156104f357600080fd5b6104fb610e13565b604051808215151515815260200191505060405180910390f35b60008054600181600116156101000203166002900480601f0160208091040260200160405190810160405280929190818152602001828054600181600116156101000203166002900480156105ab5780601f10610580576101008083540402835291602001916105ab565b820191906000526020600020905b81548152906001019060200180831161058e57829003601f168201915b505050505081565b6001809054906101000a900473ffffffffffffffffffffffffffffffffffffffff1673ffffffffffffffffffffffffffffffffffffffff163373ffffffffffffffffffffffffffffffffffffffff1614151561060e57600080fd5b600180600381111561061c57fe5b600160009054906101000a900460ff16600381111561063757fe5b14151561064357600080fd5b836002601c6101000a81548163ffffffff021916908363ffffffff160217905550828260049190610675929190610e26565b504260068190555050505050565b6001809054906101000a900473ffffffffffffffffffffffffffffffffffffffff1673ffffffffffffffffffffffffffffffffffffffff163373ffffffffffffffffffffffffffffffffffffffff161415156106de57600080fd5b60018060038111156106ec57fe5b600160009054906101000a900460ff16600381111561070757fe5b14151561071357600080fd5b6002600160006101000a81548160ff0219169083600381111561073257fe5b0217905550426008819055504260068190555061074d610775565b50565b6001809054906101000a900473ffffffffffffffffffffffffffffffffffffffff1681565b6000426006819055506107866107d5565b905060008111156107d2573373ffffffffffffffffffffffffffffffffffffffff166108fc829081150290604051600060405180830381858888f1935050505015156107d157600080fd5b5b50565b60008060008060008060038111156107e957fe5b600160009054906101000a900460ff16600381111561080457fe5b14156108135760009450610a70565b61081b610d4c565b9350603c600260189054906101000a900463ffffffff1663ffffffff166005540281151561084557fe5b0492506103e8600260149054906101000a900463ffffffff1663ffffffff16840281151561086f57fe5b0491506001600281111561087f57fe5b84600281111561088b57fe5b141561096c576001600381111561089e57fe5b600160009054906101000a900460ff1660038111156108b957fe5b14806108e957506003808111156108cc57fe5b600160009054906101000a900460ff1660038111156108e757fe5b145b1561091457600360009054906101000a900460ff161561090c5760009450610a70565b819450610a70565b6002600381111561092157fe5b600160009054906101000a900460ff16600381111561093c57fe5b1415610961573073ffffffffffffffffffffffffffffffffffffffff16319450610a70565b6000151561096b57fe5b5b60028081111561097857fe5b84600281111561098457fe5b1415610a6b5760038081111561099657fe5b600160009054906101000a900460ff1660038111156109b157fe5b14156109c1578183039450610a70565b600260038111156109ce57fe5b600160009054906101000a900460ff1660038111156109e957fe5b1415610a6a57603c6002601c9054906101000a900463ffffffff1663ffffffff1660055402811515610a1757fe5b04905081811015610a26578190505b3073ffffffffffffffffffffffffffffffffffffffff16318111151515610a4957fe5b803073ffffffffffffffffffffffffffffffffffffffff1631039450610a70565b5b600094505b5050505090565b60055481565b6002601c9054906101000a900463ffffffff1681565b60065481565b60075481565b600260149054906101000a900463ffffffff1681565b6001809054906101000a900473ffffffffffffffffffffffffffffffffffffffff1673ffffffffffffffffffffffffffffffffffffffff163373ffffffffffffffffffffffffffffffffffffffff16141515610b1057600080fd5b6000806003811115610b1e57fe5b600160009054906101000a900460ff166003811115610b3957fe5b141515610b4557600080fd5b600260189054906101000a900463ffffffff1663ffffffff16600554023073ffffffffffffffffffffffffffffffffffffffff163110151515610b8757600080fd5b60018060006101000a81548160ff02191690836003811115610ba557fe5b0217905550426007819055504260068190555050565b600160009054906101000a900460ff1681565b60085481565b600260189054906101000a900463ffffffff1681565b60026003811115610bf757fe5b600160009054906101000a900460ff166003811115610c1257fe5b1480610c425750600380811115610c2557fe5b600160009054906101000a900460ff166003811115610c4057fe5b145b1515610c4d57600080fd5b42600681905550505050565b6001809054906101000a900473ffffffffffffffffffffffffffffffffffffffff1673ffffffffffffffffffffffffffffffffffffffff163373ffffffffffffffffffffffffffffffffffffffff16141515610cb457600080fd5b6001806003811115610cc257fe5b600160009054906101000a900460ff166003811115610cdd57fe5b141515610ce957600080fd5b6003600160006101000a81548160ff02191690836003811115610d0857fe5b02179055504260088190555042600681905550610d23610775565b50565b600260009054906101000a900473ffffffffffffffffffffffffffffffffffffffff1681565b60006001809054906101000a900473ffffffffffffffffffffffffffffffffffffffff1673ffffffffffffffffffffffffffffffffffffffff163373ffffffffffffffffffffffffffffffffffffffff161415610dac5760029050610e10565b600260009054906101000a900473ffffffffffffffffffffffffffffffffffffffff1673ffffffffffffffffffffffffffffffffffffffff163373ffffffffffffffffffffffffffffffffffffffff161415610e0b5760019050610e10565b600090505b90565b600360009054906101000a900460ff1681565b828054600181600116156101000203166002900490600052602060002090601f016020900481019282601f10610e6757803560ff1916838001178555610e95565b82800160010185558215610e95579182015b82811115610e94578235825591602001919060010190610e79565b5b509050610ea29190610ea6565b5090565b610ec891905b80821115610ec4576000816000905550600101610eac565b5090565b905600a165627a7a72305820a4f6f49cdc309d911814e65642f0ce324bf026bb5070e6e4a0200c18bc42db7b0029",
  "source": "pragma solidity ^0.4.18;\n\ncontract Project {\n\n  enum State {\n    Created,\n    Active,\n    Approved,\n    Cancelled\n  }\n\n  enum Role {\n    Stranger,\n    Contractor,\n    Client\n  }\n\n  string public name;\n  State public state;\n\n  address public clientAddress;\n  address public contractorAddress;\n\n  uint32 public prepayFractionThousands;\n  uint32 public timeCapMinutes;\n\n  uint32 public minutesReported;\n  bool public prepayWithdrawn = false;\n\n  // making this public breaks Solidity compiler so it starts to output invalid ABI\n  string private contractorComment;\n\n  uint256 public hourlyRate;\n\n  uint256 public lastActivityDate = now;\n  uint256 public executionDate;\n  uint256 public endDate;\n\n  function Project(\n    string _name,\n    address _clientAddress,\n    uint256 _hourlyRate,\n    uint32 _timeCapMinutes,\n    uint32 _prepayFractionThousands)\n  public {\n    require(_prepayFractionThousands <= 1000);\n    name = _name;\n    clientAddress = _clientAddress;\n    hourlyRate = _hourlyRate;\n    timeCapMinutes = _timeCapMinutes;\n    prepayFractionThousands = _prepayFractionThousands;\n    contractorAddress = msg.sender;\n  }\n\n  modifier onlyContractor() {\n    require(msg.sender == contractorAddress);\n    _;\n  }\n\n  modifier onlyClient() {\n    require(msg.sender == clientAddress);\n    _;\n  }\n\n  modifier onlyAtState(State _state) {\n    require(state == _state);\n    _;\n  }\n\n  function start() external payable onlyClient onlyAtState(State.Created) {\n    require(this.balance >= hourlyRate * timeCapMinutes);\n    state = State.Active;\n    executionDate = now;\n    lastActivityDate = now;\n  }\n\n  function getRole() public view returns (Role) {\n    if (msg.sender == clientAddress) {\n      return Role.Client;\n    }\n    if (msg.sender == contractorAddress) {\n      return Role.Contractor;\n    }\n    return Role.Stranger;\n  }\n\n  function availableForWithdraw() public view returns (uint) {\n    if (state == State.Created) {\n      return 0;\n    }\n\n    Role role = getRole();\n\n    uint256 totalPrice = (hourlyRate * timeCapMinutes) / 60;\n    uint256 prepay = (totalPrice * prepayFractionThousands) / 1000;\n\n    if (role == Role.Contractor) {\n      if (state == State.Active || state == State.Cancelled) {\n        if (prepayWithdrawn) {\n          return 0;\n        } else {\n          return prepay;\n        }\n      }\n      if (state == State.Approved) {\n        return this.balance;\n      }\n      assert(false);\n    }\n\n    if (role == Role.Client) {\n      if (state == State.Cancelled) {\n        return totalPrice - prepay;\n      }\n      if (state == State.Approved) {\n        uint256 approvedPrice = (hourlyRate * minutesReported) / 60;\n        if (approvedPrice < prepay) {\n          approvedPrice = prepay;\n        }\n        assert(approvedPrice <= this.balance);\n        return this.balance - approvedPrice;\n      }\n    }\n\n    return 0;\n  }\n\n  function setBillableTime(uint32 timeMinutes, string comment)\n    onlyClient onlyAtState(State.Active)\n  external {\n    minutesReported = timeMinutes;\n    contractorComment = comment;\n    lastActivityDate = now;\n  }\n\n  function approve() onlyClient onlyAtState(State.Active) external {\n    state = State.Approved;\n    endDate = now;\n    lastActivityDate = now;\n    withdraw();\n  }\n\n  function cancel() onlyClient onlyAtState(State.Active) external {\n    state = State.Cancelled;\n    endDate = now;\n    lastActivityDate = now;\n    withdraw();\n  }\n\n  function withdraw() public {\n    lastActivityDate = now;\n    uint256 toBeSent = availableForWithdraw();\n    if (toBeSent > 0) {\n      msg.sender.transfer(toBeSent);\n    }\n  }\n\n  function leaveFeedback(bool positive, string comment) external {\n    require(state == State.Approved || state == State.Cancelled);\n    // TODO\n    lastActivityDate = now;\n  }\n\n}\n",
  "sourcePath": "/Users/sam/dev/projects/append-only-log/hackathon/contracts/Project.sol",
  "compiler": {
    "name": "solc",
    "version": "0.4.18+commit.9cf6e910.Emscripten.clang"
  },
  "schemaVersion": "1.0.1",
  "updatedAt": "2017-11-12T13:18:10.266Z"
}