{
  "contractName": "Project",
  "abi": [
    {
      "constant": true,
      "inputs": [],
      "name": "name",
      "outputs": [
        {
          "name": "",
          "type": "string"
        }
      ],
      "payable": false,
      "stateMutability": "view",
      "type": "function"
    },
    {
      "constant": false,
      "inputs": [
        {
          "name": "timeMinutes",
          "type": "uint32"
        },
        {
          "name": "comment",
          "type": "string"
        }
      ],
      "name": "setBillableTime",
      "outputs": [],
      "payable": false,
      "stateMutability": "nonpayable",
      "type": "function"
    },
    {
      "constant": false,
      "inputs": [],
      "name": "approve",
      "outputs": [],
      "payable": false,
      "stateMutability": "nonpayable",
      "type": "function"
    },
    {
      "constant": true,
      "inputs": [],
      "name": "clientAddress",
      "outputs": [
        {
          "name": "",
          "type": "address"
        }
      ],
      "payable": false,
      "stateMutability": "view",
      "type": "function"
    },
    {
      "constant": false,
      "inputs": [],
      "name": "withdraw",
      "outputs": [],
      "payable": false,
      "stateMutability": "nonpayable",
      "type": "function"
    },
    {
      "constant": true,
      "inputs": [],
      "name": "availableForWithdraw",
      "outputs": [
        {
          "name": "",
          "type": "uint256"
        }
      ],
      "payable": false,
      "stateMutability": "view",
      "type": "function"
    },
    {
      "constant": true,
      "inputs": [],
      "name": "hourlyRate",
      "outputs": [
        {
          "name": "",
          "type": "uint256"
        }
      ],
      "payable": false,
      "stateMutability": "view",
      "type": "function"
    },
    {
      "constant": true,
      "inputs": [],
      "name": "minutesReported",
      "outputs": [
        {
          "name": "",
          "type": "uint32"
        }
      ],
      "payable": false,
      "stateMutability": "view",
      "type": "function"
    },
    {
      "constant": true,
      "inputs": [],
      "name": "lastActivityDate",
      "outputs": [
        {
          "name": "",
          "type": "uint256"
        }
      ],
      "payable": false,
      "stateMutability": "view",
      "type": "function"
    },
    {
      "constant": true,
      "inputs": [],
      "name": "executionDate",
      "outputs": [
        {
          "name": "",
          "type": "uint256"
        }
      ],
      "payable": false,
      "stateMutability": "view",
      "type": "function"
    },
    {
      "constant": true,
      "inputs": [],
      "name": "prepayFractionThousands",
      "outputs": [
        {
          "name": "",
          "type": "uint32"
        }
      ],
      "payable": false,
      "stateMutability": "view",
      "type": "function"
    },
    {
      "constant": false,
      "inputs": [],
      "name": "start",
      "outputs": [],
      "payable": false,
      "stateMutability": "nonpayable",
      "type": "function"
    },
    {
      "constant": true,
      "inputs": [],
      "name": "state",
      "outputs": [
        {
          "name": "",
          "type": "uint8"
        }
      ],
      "payable": false,
      "stateMutability": "view",
      "type": "function"
    },
    {
      "constant": true,
      "inputs": [],
      "name": "endDate",
      "outputs": [
        {
          "name": "",
          "type": "uint256"
        }
      ],
      "payable": false,
      "stateMutability": "view",
      "type": "function"
    },
    {
      "constant": true,
      "inputs": [],
      "name": "timeCapMinutes",
      "outputs": [
        {
          "name": "",
          "type": "uint32"
        }
      ],
      "payable": false,
      "stateMutability": "view",
      "type": "function"
    },
    {
      "constant": false,
      "inputs": [
        {
          "name": "positive",
          "type": "bool"
        },
        {
          "name": "comment",
          "type": "string"
        }
      ],
      "name": "leaveFeedback",
      "outputs": [],
      "payable": false,
      "stateMutability": "nonpayable",
      "type": "function"
    },
    {
      "constant": false,
      "inputs": [],
      "name": "cancel",
      "outputs": [],
      "payable": false,
      "stateMutability": "nonpayable",
      "type": "function"
    },
    {
      "constant": true,
      "inputs": [],
      "name": "contractorAddress",
      "outputs": [
        {
          "name": "",
          "type": "address"
        }
      ],
      "payable": false,
      "stateMutability": "view",
      "type": "function"
    },
    {
      "constant": true,
      "inputs": [],
      "name": "getRole",
      "outputs": [
        {
          "name": "",
          "type": "uint8"
        }
      ],
      "payable": false,
      "stateMutability": "view",
      "type": "function"
    },
    {
      "inputs": [
        {
          "name": "_name",
          "type": "string"
        },
        {
          "name": "_clientAddress",
          "type": "address"
        },
        {
          "name": "_hourlyRate",
          "type": "uint256"
        },
        {
          "name": "_timeCapMinutes",
          "type": "uint32"
        },
        {
          "name": "_prepayFractionThousands",
          "type": "uint32"
        }
      ],
      "payable": false,
      "stateMutability": "nonpayable",
      "type": "constructor"
    }
  ],
  "bytecode": "0x606060405242600555341561001357600080fd5b604051610b3b380380610b3b83398101604052808051820191906020018051906020019091908051906020019091908051906020019091908051906020019091905050846000908051906020019061006c929190610141565b50836001806101000a81548173ffffffffffffffffffffffffffffffffffffffff021916908373ffffffffffffffffffffffffffffffffffffffff1602179055508260048190555081600260186101000a81548163ffffffff021916908363ffffffff16021790555080600260146101000a81548163ffffffff021916908363ffffffff16021790555033600260006101000a81548173ffffffffffffffffffffffffffffffffffffffff021916908373ffffffffffffffffffffffffffffffffffffffff16021790555050505050506101e6565b828054600181600116156101000203166002900490600052602060002090601f016020900481019282601f1061018257805160ff19168380011785556101b0565b828001600101855582156101b0579182015b828111156101af578251825591602001919060010190610194565b5b5090506101bd91906101c1565b5090565b6101e391905b808211156101df5760008160009055506001016101c7565b5090565b90565b610946806101f56000396000f300606060405260043610610107576000357c0100000000000000000000000000000000000000000000000000000000900463ffffffff16806306fdde031461010c5780630e40de311461019a57806312424e3f146101d75780632c2ab5ea146101ec5780633ccfd60b146102415780634d947d591461025657806359a7b3fe1461027f578063844b3320146102a857806391294e54146102dd578063a761d1b614610306578063bb168ab61461032f578063be9a655514610364578063c19d93fb14610379578063c24a0f8b146103b0578063cae3e702146103d9578063d900f2d61461040e578063ea8a1af014610447578063f21376af1461045c578063fde08174146104b1575b600080fd5b341561011757600080fd5b61011f6104e8565b6040518080602001828103825283818151815260200191508051906020019080838360005b8381101561015f578082015181840152602081019050610144565b50505050905090810190601f16801561018c5780820380516001836020036101000a031916815260200191505b509250505060405180910390f35b34156101a557600080fd5b6101d5600480803563ffffffff169060200190919080359060200190820180359060200191909192905050610586565b005b34156101e257600080fd5b6101ea6105c5565b005b34156101f757600080fd5b6101ff6105f9565b604051808273ffffffffffffffffffffffffffffffffffffffff1673ffffffffffffffffffffffffffffffffffffffff16815260200191505060405180910390f35b341561024c57600080fd5b61025461061e565b005b341561026157600080fd5b61026961069f565b6040518082815260200191505060405180910390f35b341561028a57600080fd5b6102926106a8565b6040518082815260200191505060405180910390f35b34156102b357600080fd5b6102bb6106ae565b604051808263ffffffff1663ffffffff16815260200191505060405180910390f35b34156102e857600080fd5b6102f06106c4565b6040518082815260200191505060405180910390f35b341561031157600080fd5b6103196106ca565b6040518082815260200191505060405180910390f35b341561033a57600080fd5b6103426106d0565b604051808263ffffffff1663ffffffff16815260200191505060405180910390f35b341561036f57600080fd5b6103776106e6565b005b341561038457600080fd5b61038c610719565b6040518082600381111561039c57fe5b60ff16815260200191505060405180910390f35b34156103bb57600080fd5b6103c361072c565b6040518082815260200191505060405180910390f35b34156103e457600080fd5b6103ec610732565b604051808263ffffffff1663ffffffff16815260200191505060405180910390f35b341561041957600080fd5b610445600480803515159060200190919080359060200190820180359060200191909192905050610748565b005b341561045257600080fd5b61045a610754565b005b341561046757600080fd5b61046f610788565b604051808273ffffffffffffffffffffffffffffffffffffffff1673ffffffffffffffffffffffffffffffffffffffff16815260200191505060405180910390f35b34156104bc57600080fd5b6104c46107ae565b604051808260028111156104d457fe5b60ff16815260200191505060405180910390f35b60008054600181600116156101000203166002900480601f01602080910402602001604051908101604052809291908181526020018280546001816001161561010002031660029004801561057e5780601f106105535761010080835404028352916020019161057e565b820191906000526020600020905b81548152906001019060200180831161056157829003601f168201915b505050505081565b826002601c6101000a81548163ffffffff021916908363ffffffff1602179055508181600391906105b8929190610875565b5042600581905550505050565b6002600160006101000a81548160ff021916908360038111156105e457fe5b02179055504260078190555042600581905550565b6001809054906101000a900473ffffffffffffffffffffffffffffffffffffffff1681565b60003073ffffffffffffffffffffffffffffffffffffffff16311115610696573373ffffffffffffffffffffffffffffffffffffffff166108fc3073ffffffffffffffffffffffffffffffffffffffff16319081150290604051600060405180830381858888f19350505050151561069557600080fd5b5b42600581905550565b6000602a905090565b60045481565b6002601c9054906101000a900463ffffffff1681565b60055481565b60065481565b600260149054906101000a900463ffffffff1681565b60018060006101000a81548160ff0219169083600381111561070457fe5b02179055504260068190555042600581905550565b600160009054906101000a900460ff1681565b60075481565b600260189054906101000a900463ffffffff1681565b42600581905550505050565b6003600160006101000a81548160ff0219169083600381111561077357fe5b02179055504260078190555042600581905550565b600260009054906101000a900473ffffffffffffffffffffffffffffffffffffffff1681565b60006001809054906101000a900473ffffffffffffffffffffffffffffffffffffffff1673ffffffffffffffffffffffffffffffffffffffff163373ffffffffffffffffffffffffffffffffffffffff16141561080e5760029050610872565b600260009054906101000a900473ffffffffffffffffffffffffffffffffffffffff1673ffffffffffffffffffffffffffffffffffffffff163373ffffffffffffffffffffffffffffffffffffffff16141561086d5760019050610872565b600090505b90565b828054600181600116156101000203166002900490600052602060002090601f016020900481019282601f106108b657803560ff19168380011785556108e4565b828001600101855582156108e4579182015b828111156108e35782358255916020019190600101906108c8565b5b5090506108f191906108f5565b5090565b61091791905b808211156109135760008160009055506001016108fb565b5090565b905600a165627a7a72305820389813f87aa257bfa5ec03bf9cf1ccc6eb0366d4ec98962f0195da1b17730d8e0029",
  "source": "pragma solidity ^0.4.18;\n\ncontract Project {\n\n  enum State {\n    Created,\n    Active,\n    Approved,\n    Cancelled\n  }\n\n  enum Role {\n    Stranger,\n    Contractor,\n    Client\n  }\n\n  string public name;\n  State public state;\n\n  address public clientAddress;\n  address public contractorAddress;\n\n  uint32 public prepayFractionThousands;\n  uint32 public timeCapMinutes;\n\n  uint32 public minutesReported;\n\n  // making this public breaks Solidity compiler so it starts to output invalid ABI\n  string private contractorComment;\n\n  uint256 public hourlyRate;\n\n  uint256 public lastActivityDate = now;\n  uint256 public executionDate;\n  uint256 public endDate;\n\n  function Project(\n    string _name,\n    address _clientAddress,\n    uint256 _hourlyRate,\n    uint32 _timeCapMinutes,\n    uint32 _prepayFractionThousands)\n  public {\n    name = _name;\n    clientAddress = _clientAddress;\n    hourlyRate = _hourlyRate;\n    timeCapMinutes = _timeCapMinutes;\n    prepayFractionThousands = _prepayFractionThousands;\n    contractorAddress = msg.sender;\n  }\n\n  function start() external {\n    state = State.Active;\n    executionDate = now;\n    lastActivityDate = now;\n  }\n\n  function getRole() public view returns (Role) {\n    if (msg.sender == clientAddress) {\n      return Role.Client;\n    }\n    if (msg.sender == contractorAddress) {\n      return Role.Contractor;\n    }\n    return Role.Stranger;\n  }\n\n  function availableForWithdraw() public view returns (uint) {\n    return 42;\n  }\n\n  function setBillableTime(uint32 timeMinutes, string comment) external {\n    minutesReported = timeMinutes;\n    contractorComment = comment;\n    lastActivityDate = now;\n  }\n\n  function approve() external {\n    state = State.Approved;\n    endDate = now;\n    lastActivityDate = now;\n  }\n\n  function cancel() external {\n    state = State.Cancelled;\n    endDate = now;\n    lastActivityDate = now;\n  }\n\n  function withdraw() external {\n    if (this.balance > 0) {\n      msg.sender.transfer(this.balance);\n    }\n    lastActivityDate = now;\n  }\n\n  function leaveFeedback(bool positive, string comment) external {\n    // TODO\n    lastActivityDate = now;\n  }\n\n}\n",
  "sourcePath": "/Users/sam/dev/projects/append-only-log/hackathon/contracts/Project.sol",
  "compiler": {
    "name": "solc",
    "version": "0.4.18+commit.9cf6e910.Emscripten.clang"
  },
  "schemaVersion": "1.0.1",
  "updatedAt": "2017-11-12T12:28:20.500Z"
}