{
  "contractName": "Project",
  "abi": [
    {
      "constant": true,
      "inputs": [],
      "name": "name",
      "outputs": [
        {
          "name": "",
          "type": "string"
        }
      ],
      "payable": false,
      "stateMutability": "view",
      "type": "function"
    },
    {
      "constant": false,
      "inputs": [
        {
          "name": "timeMinutes",
          "type": "uint32"
        },
        {
          "name": "comment",
          "type": "string"
        }
      ],
      "name": "setBillableTime",
      "outputs": [],
      "payable": false,
      "stateMutability": "nonpayable",
      "type": "function"
    },
    {
      "constant": false,
      "inputs": [],
      "name": "approve",
      "outputs": [],
      "payable": false,
      "stateMutability": "nonpayable",
      "type": "function"
    },
    {
      "constant": true,
      "inputs": [],
      "name": "clientAddress",
      "outputs": [
        {
          "name": "",
          "type": "address"
        }
      ],
      "payable": false,
      "stateMutability": "view",
      "type": "function"
    },
    {
      "constant": false,
      "inputs": [],
      "name": "withdraw",
      "outputs": [],
      "payable": false,
      "stateMutability": "nonpayable",
      "type": "function"
    },
    {
      "constant": true,
      "inputs": [],
      "name": "hourlyRate",
      "outputs": [
        {
          "name": "",
          "type": "uint256"
        }
      ],
      "payable": false,
      "stateMutability": "view",
      "type": "function"
    },
    {
      "constant": true,
      "inputs": [],
      "name": "minutesReported",
      "outputs": [
        {
          "name": "",
          "type": "uint32"
        }
      ],
      "payable": false,
      "stateMutability": "view",
      "type": "function"
    },
    {
      "constant": true,
      "inputs": [],
      "name": "executionDate",
      "outputs": [
        {
          "name": "",
          "type": "uint256"
        }
      ],
      "payable": false,
      "stateMutability": "view",
      "type": "function"
    },
    {
      "constant": true,
      "inputs": [],
      "name": "prepayFractionThousands",
      "outputs": [
        {
          "name": "",
          "type": "uint32"
        }
      ],
      "payable": false,
      "stateMutability": "view",
      "type": "function"
    },
    {
      "constant": false,
      "inputs": [],
      "name": "start",
      "outputs": [],
      "payable": false,
      "stateMutability": "nonpayable",
      "type": "function"
    },
    {
      "constant": true,
      "inputs": [],
      "name": "state",
      "outputs": [
        {
          "name": "",
          "type": "uint8"
        }
      ],
      "payable": false,
      "stateMutability": "view",
      "type": "function"
    },
    {
      "constant": true,
      "inputs": [],
      "name": "endDate",
      "outputs": [
        {
          "name": "",
          "type": "uint256"
        }
      ],
      "payable": false,
      "stateMutability": "view",
      "type": "function"
    },
    {
      "constant": true,
      "inputs": [],
      "name": "timeCapMinutes",
      "outputs": [
        {
          "name": "",
          "type": "uint32"
        }
      ],
      "payable": false,
      "stateMutability": "view",
      "type": "function"
    },
    {
      "constant": false,
      "inputs": [
        {
          "name": "positive",
          "type": "bool"
        },
        {
          "name": "comment",
          "type": "string"
        }
      ],
      "name": "leaveFeedback",
      "outputs": [],
      "payable": false,
      "stateMutability": "nonpayable",
      "type": "function"
    },
    {
      "constant": false,
      "inputs": [],
      "name": "cancel",
      "outputs": [],
      "payable": false,
      "stateMutability": "nonpayable",
      "type": "function"
    },
    {
      "constant": true,
      "inputs": [],
      "name": "contractorAddress",
      "outputs": [
        {
          "name": "",
          "type": "address"
        }
      ],
      "payable": false,
      "stateMutability": "view",
      "type": "function"
    },
    {
      "constant": true,
      "inputs": [],
      "name": "getRole",
      "outputs": [
        {
          "name": "",
          "type": "uint8"
        }
      ],
      "payable": false,
      "stateMutability": "view",
      "type": "function"
    },
    {
      "inputs": [
        {
          "name": "_name",
          "type": "string"
        },
        {
          "name": "_clientAddress",
          "type": "address"
        },
        {
          "name": "_hourlyRate",
          "type": "uint256"
        },
        {
          "name": "_timeCapMinutes",
          "type": "uint32"
        },
        {
          "name": "_prepayFractionThousands",
          "type": "uint32"
        }
      ],
      "payable": false,
      "stateMutability": "nonpayable",
      "type": "constructor"
    }
  ],
  "bytecode": "0x6060604052341561000f57600080fd5b604051610a96380380610a9683398101604052808051820191906020018051906020019091908051906020019091908051906020019091908051906020019091905050846000908051906020019061006892919061013d565b50836001806101000a81548173ffffffffffffffffffffffffffffffffffffffff021916908373ffffffffffffffffffffffffffffffffffffffff1602179055508260048190555081600260186101000a81548163ffffffff021916908363ffffffff16021790555080600260146101000a81548163ffffffff021916908363ffffffff16021790555033600260006101000a81548173ffffffffffffffffffffffffffffffffffffffff021916908373ffffffffffffffffffffffffffffffffffffffff16021790555050505050506101e2565b828054600181600116156101000203166002900490600052602060002090601f016020900481019282601f1061017e57805160ff19168380011785556101ac565b828001600101855582156101ac579182015b828111156101ab578251825591602001919060010190610190565b5b5090506101b991906101bd565b5090565b6101df91905b808211156101db5760008160009055506001016101c3565b5090565b90565b6108a5806101f16000396000f3006060604052600436106100f1576000357c0100000000000000000000000000000000000000000000000000000000900463ffffffff16806306fdde03146100f65780630e40de311461018457806312424e3f146101c15780632c2ab5ea146101d65780633ccfd60b1461022b57806359a7b3fe14610240578063844b332014610269578063a761d1b61461029e578063bb168ab6146102c7578063be9a6555146102fc578063c19d93fb14610311578063c24a0f8b14610348578063cae3e70214610371578063d900f2d6146103a6578063ea8a1af0146103df578063f21376af146103f4578063fde0817414610449575b600080fd5b341561010157600080fd5b610109610480565b6040518080602001828103825283818151815260200191508051906020019080838360005b8381101561014957808201518184015260208101905061012e565b50505050905090810190601f1680156101765780820380516001836020036101000a031916815260200191505b509250505060405180910390f35b341561018f57600080fd5b6101bf600480803563ffffffff16906020019091908035906020019082018035906020019190919290505061051e565b005b34156101cc57600080fd5b6101d4610556565b005b34156101e157600080fd5b6101e9610583565b604051808273ffffffffffffffffffffffffffffffffffffffff1673ffffffffffffffffffffffffffffffffffffffff16815260200191505060405180910390f35b341561023657600080fd5b61023e6105a8565b005b341561024b57600080fd5b610253610622565b6040518082815260200191505060405180910390f35b341561027457600080fd5b61027c610628565b604051808263ffffffff1663ffffffff16815260200191505060405180910390f35b34156102a957600080fd5b6102b161063e565b6040518082815260200191505060405180910390f35b34156102d257600080fd5b6102da610644565b604051808263ffffffff1663ffffffff16815260200191505060405180910390f35b341561030757600080fd5b61030f61065a565b005b341561031c57600080fd5b610324610686565b6040518082600381111561033457fe5b60ff16815260200191505060405180910390f35b341561035357600080fd5b61035b610699565b6040518082815260200191505060405180910390f35b341561037c57600080fd5b61038461069f565b604051808263ffffffff1663ffffffff16815260200191505060405180910390f35b34156103b157600080fd5b6103dd6004808035151590602001909190803590602001908201803590602001919091929050506106b5565b005b34156103ea57600080fd5b6103f26106ba565b005b34156103ff57600080fd5b6104076106e7565b604051808273ffffffffffffffffffffffffffffffffffffffff1673ffffffffffffffffffffffffffffffffffffffff16815260200191505060405180910390f35b341561045457600080fd5b61045c61070d565b6040518082600281111561046c57fe5b60ff16815260200191505060405180910390f35b60008054600181600116156101000203166002900480601f0160208091040260200160405190810160405280929190818152602001828054600181600116156101000203166002900480156105165780601f106104eb57610100808354040283529160200191610516565b820191906000526020600020905b8154815290600101906020018083116104f957829003601f168201915b505050505081565b826002601c6101000a81548163ffffffff021916908363ffffffff1602179055508181600391906105509291906107d4565b50505050565b6002600160006101000a81548160ff0219169083600381111561057557fe5b021790555042600681905550565b6001809054906101000a900473ffffffffffffffffffffffffffffffffffffffff1681565b60003073ffffffffffffffffffffffffffffffffffffffff16311115610620573373ffffffffffffffffffffffffffffffffffffffff166108fc3073ffffffffffffffffffffffffffffffffffffffff16319081150290604051600060405180830381858888f19350505050151561061f57600080fd5b5b565b60045481565b6002601c9054906101000a900463ffffffff1681565b60055481565b600260149054906101000a900463ffffffff1681565b60018060006101000a81548160ff0219169083600381111561067857fe5b021790555042600581905550565b600160009054906101000a900460ff1681565b60065481565b600260189054906101000a900463ffffffff1681565b505050565b6003600160006101000a81548160ff021916908360038111156106d957fe5b021790555042600681905550565b600260009054906101000a900473ffffffffffffffffffffffffffffffffffffffff1681565b60006001809054906101000a900473ffffffffffffffffffffffffffffffffffffffff1673ffffffffffffffffffffffffffffffffffffffff163373ffffffffffffffffffffffffffffffffffffffff16141561076d57600290506107d1565b600260009054906101000a900473ffffffffffffffffffffffffffffffffffffffff1673ffffffffffffffffffffffffffffffffffffffff163373ffffffffffffffffffffffffffffffffffffffff1614156107cc57600190506107d1565b600090505b90565b828054600181600116156101000203166002900490600052602060002090601f016020900481019282601f1061081557803560ff1916838001178555610843565b82800160010185558215610843579182015b82811115610842578235825591602001919060010190610827565b5b5090506108509190610854565b5090565b61087691905b8082111561087257600081600090555060010161085a565b5090565b905600a165627a7a72305820202d86f7bd4a627438e0beb3e95155a3982a8e8bfac41345c95a1f1271fd8e4e0029",
  "source": "pragma solidity ^0.4.18;\n\ncontract Project {\n\n  enum State {\n    Created,\n    Active,\n    Approved,\n    Cancelled\n  }\n\n  enum Role {\n    Stranger,\n    Contractor,\n    Client\n  }\n\n  string public name;\n  State public state;\n\n  address public clientAddress;\n  address public contractorAddress;\n\n  uint32 public prepayFractionThousands;\n  uint32 public timeCapMinutes;\n\n  uint32 public minutesReported;\n\n  // making this public breaks Solidity compiler so it starts to output invalid ABI\n  string private contractorComment;\n\n  uint256 public hourlyRate;\n\n  uint256 public executionDate;\n  uint256 public endDate;\n\n  function Project(\n    string _name,\n    address _clientAddress,\n    uint256 _hourlyRate,\n    uint32 _timeCapMinutes,\n    uint32 _prepayFractionThousands)\n  public {\n    name = _name;\n    clientAddress = _clientAddress;\n    hourlyRate = _hourlyRate;\n    timeCapMinutes = _timeCapMinutes;\n    prepayFractionThousands = _prepayFractionThousands;\n    contractorAddress = msg.sender;\n  }\n\n  function start() external {\n    state = State.Active;\n    executionDate = now;\n  }\n\n  function getRole() public view returns (Role) {\n    if (msg.sender == clientAddress) {\n      return Role.Client;\n    }\n    if (msg.sender == contractorAddress) {\n      return Role.Contractor;\n    }\n    return Role.Stranger;\n  }\n\n  function setBillableTime(uint32 timeMinutes, string comment) external {\n    minutesReported = timeMinutes;\n    contractorComment = comment;\n  }\n\n  function approve() external {\n    state = State.Approved;\n    endDate = now;\n  }\n\n  function cancel() external {\n    state = State.Cancelled;\n    endDate = now;\n  }\n\n  function withdraw() external {\n    if (this.balance > 0) {\n      msg.sender.transfer(this.balance);\n    }\n  }\n\n  function leaveFeedback(bool positive, string comment) external {\n    // TODO\n  }\n\n}\n",
  "sourcePath": "/Users/sam/dev/projects/append-only-log/hackathon/contracts/Project.sol",
  "compiler": {
    "name": "solc",
    "version": "0.4.18+commit.9cf6e910.Emscripten.clang"
  },
  "schemaVersion": "1.0.1",
  "updatedAt": "2017-11-12T10:03:22.317Z"
}