{
  "contractName": "Project",
  "abi": [
    {
      "constant": true,
      "inputs": [],
      "name": "name",
      "outputs": [
        {
          "name": "",
          "type": "string"
        }
      ],
      "payable": false,
      "stateMutability": "view",
      "type": "function"
    },
    {
      "constant": false,
      "inputs": [
        {
          "name": "timeMinutes",
          "type": "uint32"
        },
        {
          "name": "comment",
          "type": "string"
        }
      ],
      "name": "setBillableTime",
      "outputs": [],
      "payable": false,
      "stateMutability": "nonpayable",
      "type": "function"
    },
    {
      "constant": false,
      "inputs": [],
      "name": "approve",
      "outputs": [],
      "payable": false,
      "stateMutability": "nonpayable",
      "type": "function"
    },
    {
      "constant": true,
      "inputs": [],
      "name": "clientAddress",
      "outputs": [
        {
          "name": "",
          "type": "address"
        }
      ],
      "payable": false,
      "stateMutability": "view",
      "type": "function"
    },
    {
      "constant": false,
      "inputs": [],
      "name": "withdraw",
      "outputs": [],
      "payable": false,
      "stateMutability": "nonpayable",
      "type": "function"
    },
    {
      "constant": true,
      "inputs": [],
      "name": "getPriceCap",
      "outputs": [
        {
          "name": "",
          "type": "uint256"
        }
      ],
      "payable": false,
      "stateMutability": "view",
      "type": "function"
    },
    {
      "constant": true,
      "inputs": [],
      "name": "availableForWithdraw",
      "outputs": [
        {
          "name": "",
          "type": "uint256"
        }
      ],
      "payable": false,
      "stateMutability": "view",
      "type": "function"
    },
    {
      "constant": true,
      "inputs": [],
      "name": "hourlyRate",
      "outputs": [
        {
          "name": "",
          "type": "uint256"
        }
      ],
      "payable": false,
      "stateMutability": "view",
      "type": "function"
    },
    {
      "constant": true,
      "inputs": [],
      "name": "minutesReported",
      "outputs": [
        {
          "name": "",
          "type": "uint32"
        }
      ],
      "payable": false,
      "stateMutability": "view",
      "type": "function"
    },
    {
      "constant": true,
      "inputs": [],
      "name": "lastActivityDate",
      "outputs": [
        {
          "name": "",
          "type": "uint256"
        }
      ],
      "payable": false,
      "stateMutability": "view",
      "type": "function"
    },
    {
      "constant": true,
      "inputs": [],
      "name": "executionDate",
      "outputs": [
        {
          "name": "",
          "type": "uint256"
        }
      ],
      "payable": false,
      "stateMutability": "view",
      "type": "function"
    },
    {
      "constant": true,
      "inputs": [],
      "name": "getPrepay",
      "outputs": [
        {
          "name": "",
          "type": "uint256"
        }
      ],
      "payable": false,
      "stateMutability": "view",
      "type": "function"
    },
    {
      "constant": true,
      "inputs": [],
      "name": "prepayFractionThousands",
      "outputs": [
        {
          "name": "",
          "type": "uint32"
        }
      ],
      "payable": false,
      "stateMutability": "view",
      "type": "function"
    },
    {
      "constant": false,
      "inputs": [],
      "name": "start",
      "outputs": [],
      "payable": true,
      "stateMutability": "payable",
      "type": "function"
    },
    {
      "constant": true,
      "inputs": [],
      "name": "state",
      "outputs": [
        {
          "name": "",
          "type": "uint8"
        }
      ],
      "payable": false,
      "stateMutability": "view",
      "type": "function"
    },
    {
      "constant": true,
      "inputs": [],
      "name": "endDate",
      "outputs": [
        {
          "name": "",
          "type": "uint256"
        }
      ],
      "payable": false,
      "stateMutability": "view",
      "type": "function"
    },
    {
      "constant": true,
      "inputs": [],
      "name": "timeCapMinutes",
      "outputs": [
        {
          "name": "",
          "type": "uint32"
        }
      ],
      "payable": false,
      "stateMutability": "view",
      "type": "function"
    },
    {
      "constant": false,
      "inputs": [
        {
          "name": "positive",
          "type": "bool"
        },
        {
          "name": "comment",
          "type": "string"
        }
      ],
      "name": "leaveFeedback",
      "outputs": [],
      "payable": false,
      "stateMutability": "nonpayable",
      "type": "function"
    },
    {
      "constant": false,
      "inputs": [],
      "name": "cancel",
      "outputs": [],
      "payable": false,
      "stateMutability": "nonpayable",
      "type": "function"
    },
    {
      "constant": true,
      "inputs": [],
      "name": "contractorAddress",
      "outputs": [
        {
          "name": "",
          "type": "address"
        }
      ],
      "payable": false,
      "stateMutability": "view",
      "type": "function"
    },
    {
      "constant": true,
      "inputs": [],
      "name": "getRole",
      "outputs": [
        {
          "name": "",
          "type": "uint8"
        }
      ],
      "payable": false,
      "stateMutability": "view",
      "type": "function"
    },
    {
      "inputs": [
        {
          "name": "_name",
          "type": "string"
        },
        {
          "name": "_clientAddress",
          "type": "address"
        },
        {
          "name": "_hourlyRate",
          "type": "uint256"
        },
        {
          "name": "_timeCapMinutes",
          "type": "uint32"
        },
        {
          "name": "_prepayFractionThousands",
          "type": "uint32"
        }
      ],
      "payable": false,
      "stateMutability": "nonpayable",
      "type": "constructor"
    }
  ],
  "bytecode": "0x60606040524260055560006008556000600955341561001d57600080fd5b604051610fb0380380610fb0833981016040528080518201919060200180519060200190919080519060200190919080519060200190919080519060200190919050506103e88163ffffffff161115151561007757600080fd5b846000908051906020019061008d929190610162565b50836001806101000a81548173ffffffffffffffffffffffffffffffffffffffff021916908373ffffffffffffffffffffffffffffffffffffffff1602179055508260048190555081600260186101000a81548163ffffffff021916908363ffffffff16021790555080600260146101000a81548163ffffffff021916908363ffffffff16021790555033600260006101000a81548173ffffffffffffffffffffffffffffffffffffffff021916908373ffffffffffffffffffffffffffffffffffffffff1602179055505050505050610207565b828054600181600116156101000203166002900490600052602060002090601f016020900481019282601f106101a357805160ff19168380011785556101d1565b828001600101855582156101d1579182015b828111156101d05782518255916020019190600101906101b5565b5b5090506101de91906101e2565b5090565b61020491905b808211156102005760008160009055506001016101e8565b5090565b90565b610d9a806102166000396000f30060606040526004361061011d576000357c0100000000000000000000000000000000000000000000000000000000900463ffffffff16806306fdde03146101225780630e40de31146101b057806312424e3f146101ed5780632c2ab5ea146102025780633ccfd60b146102575780634c7afe601461026c5780634d947d591461029557806359a7b3fe146102be578063844b3320146102e757806391294e541461031c578063a761d1b614610345578063adb41fec1461036e578063bb168ab614610397578063be9a6555146103cc578063c19d93fb146103d6578063c24a0f8b1461040d578063cae3e70214610436578063d900f2d61461046b578063ea8a1af0146104a4578063f21376af146104b9578063fde081741461050e575b600080fd5b341561012d57600080fd5b610135610545565b6040518080602001828103825283818151815260200191508051906020019080838360005b8381101561017557808201518184015260208101905061015a565b50505050905090810190601f1680156101a25780820380516001836020036101000a031916815260200191505b509250505060405180910390f35b34156101bb57600080fd5b6101eb600480803563ffffffff1690602001909190803590602001908201803590602001919091929050506105e3565b005b34156101f857600080fd5b6102006106b4565b005b341561020d57600080fd5b610215610728565b604051808273ffffffffffffffffffffffffffffffffffffffff1673ffffffffffffffffffffffffffffffffffffffff16815260200191505060405180910390f35b341561026257600080fd5b61026a61074d565b005b341561027757600080fd5b61027f6107df565b6040518082815260200191505060405180910390f35b34156102a057600080fd5b6102a861080f565b6040518082815260200191505060405180910390f35b34156102c957600080fd5b6102d161092e565b6040518082815260200191505060405180910390f35b34156102f257600080fd5b6102fa610934565b604051808263ffffffff1663ffffffff16815260200191505060405180910390f35b341561032757600080fd5b61032f61094a565b6040518082815260200191505060405180910390f35b341561035057600080fd5b610358610950565b6040518082815260200191505060405180910390f35b341561037957600080fd5b610381610956565b6040518082815260200191505060405180910390f35b34156103a257600080fd5b6103aa610991565b604051808263ffffffff1663ffffffff16815260200191505060405180910390f35b6103d46109a7565b005b34156103e157600080fd5b6103e9610a79565b604051808260038111156103f957fe5b60ff16815260200191505060405180910390f35b341561041857600080fd5b610420610a8c565b6040518082815260200191505060405180910390f35b341561044157600080fd5b610449610a92565b604051808263ffffffff1663ffffffff16815260200191505060405180910390f35b341561047657600080fd5b6104a2600480803515159060200190919080359060200190820180359060200191909192905050610aa8565b005b34156104af57600080fd5b6104b7610b17565b005b34156104c457600080fd5b6104cc610bdc565b604051808273ffffffffffffffffffffffffffffffffffffffff1673ffffffffffffffffffffffffffffffffffffffff16815260200191505060405180910390f35b341561051957600080fd5b610521610c02565b6040518082600281111561053157fe5b60ff16815260200191505060405180910390f35b60008054600181600116156101000203166002900480601f0160208091040260200160405190810160405280929190818152602001828054600181600116156101000203166002900480156105db5780601f106105b0576101008083540402835291602001916105db565b820191906000526020600020905b8154815290600101906020018083116105be57829003601f168201915b505050505081565b600260009054906101000a900473ffffffffffffffffffffffffffffffffffffffff1673ffffffffffffffffffffffffffffffffffffffff163373ffffffffffffffffffffffffffffffffffffffff1614151561063f57600080fd5b600180600381111561064d57fe5b600160009054906101000a900460ff16600381111561066857fe5b14151561067457600080fd5b836002601c6101000a81548163ffffffff021916908363ffffffff1602179055508282600391906106a6929190610cc9565b504260058190555050505050565b60006002600160006101000a81548160ff021916908360038111156106d557fe5b02179055504260078190555042600581905550603c6002601c9054906101000a900463ffffffff1663ffffffff166004540281151561071057fe5b04905060085481111561072557806008819055505b50565b6001809054906101000a900473ffffffffffffffffffffffffffffffffffffffff1681565b60004260058190555061075e61080f565b905060008111156107dc576001600281111561077657fe5b61077e610c02565b600281111561078957fe5b141561079b5780600954016009819055505b3373ffffffffffffffffffffffffffffffffffffffff166108fc829081150290604051600060405180830381858888f1935050505015156107db57600080fd5b5b50565b6000603c600260189054906101000a900463ffffffff1663ffffffff166004540281151561080957fe5b04905090565b600080600080600381111561082057fe5b600160009054906101000a900460ff16600381111561083b57fe5b141561084a5760009250610929565b610852610c02565b91506000600281111561086157fe5b82600281111561086d57fe5b141561087c5760009250610929565b6009546008541015151561088c57fe5b600954600854039050600160028111156108a257fe5b8260028111156108ae57fe5b14156108bc57809250610929565b6002808111156108c857fe5b8260028111156108d457fe5b141561091e57803073ffffffffffffffffffffffffffffffffffffffff1631101515156108fd57fe5b803073ffffffffffffffffffffffffffffffffffffffff1631039250610929565b6000151561092857fe5b5b505090565b60045481565b6002601c9054906101000a900463ffffffff1681565b60055481565b60065481565b6000806109616107df565b90506103e8600260149054906101000a900463ffffffff1663ffffffff16820281151561098a57fe5b0491505090565b600260149054906101000a900463ffffffff1681565b6001809054906101000a900473ffffffffffffffffffffffffffffffffffffffff1673ffffffffffffffffffffffffffffffffffffffff163373ffffffffffffffffffffffffffffffffffffffff16141515610a0257600080fd5b6000806003811115610a1057fe5b600160009054906101000a900460ff166003811115610a2b57fe5b141515610a3757600080fd5b60018060006101000a81548160ff02191690836003811115610a5557fe5b0217905550610a62610956565b600881905550426006819055504260058190555050565b600160009054906101000a900460ff1681565b60075481565b600260189054906101000a900463ffffffff1681565b60026003811115610ab557fe5b600160009054906101000a900460ff166003811115610ad057fe5b1480610b005750600380811115610ae357fe5b600160009054906101000a900460ff166003811115610afe57fe5b145b1515610b0b57600080fd5b42600581905550505050565b6001809054906101000a900473ffffffffffffffffffffffffffffffffffffffff1673ffffffffffffffffffffffffffffffffffffffff163373ffffffffffffffffffffffffffffffffffffffff16141515610b7257600080fd5b6001806003811115610b8057fe5b600160009054906101000a900460ff166003811115610b9b57fe5b141515610ba757600080fd5b6003600160006101000a81548160ff02191690836003811115610bc657fe5b0217905550426007819055504260058190555050565b600260009054906101000a900473ffffffffffffffffffffffffffffffffffffffff1681565b60006001809054906101000a900473ffffffffffffffffffffffffffffffffffffffff1673ffffffffffffffffffffffffffffffffffffffff163373ffffffffffffffffffffffffffffffffffffffff161415610c625760029050610cc6565b600260009054906101000a900473ffffffffffffffffffffffffffffffffffffffff1673ffffffffffffffffffffffffffffffffffffffff163373ffffffffffffffffffffffffffffffffffffffff161415610cc15760019050610cc6565b600090505b90565b828054600181600116156101000203166002900490600052602060002090601f016020900481019282601f10610d0a57803560ff1916838001178555610d38565b82800160010185558215610d38579182015b82811115610d37578235825591602001919060010190610d1c565b5b509050610d459190610d49565b5090565b610d6b91905b80821115610d67576000816000905550600101610d4f565b5090565b905600a165627a7a723058209ca64e1684db5da9890c3fbf15451ff3f62f115eae5a9f7b538936c4aa10fd8b0029",
  "source": "pragma solidity ^0.4.18;\n\ncontract Project {\n\n  enum State {\n    Created,\n    Active,\n    Approved,\n    Cancelled\n  }\n\n  enum Role {\n    Stranger,\n    Contractor,\n    Client\n  }\n\n  string public name;\n  State public state;\n\n  address public clientAddress;\n  address public contractorAddress;\n\n  uint32 public prepayFractionThousands;\n  uint32 public timeCapMinutes;\n\n  uint32 public minutesReported;\n\n  // making this public breaks Solidity compiler so it starts to output invalid ABI\n  string private contractorComment;\n\n  uint256 public hourlyRate;\n\n  uint256 public lastActivityDate = now;\n  uint256 public executionDate;\n  uint256 public endDate;\n\n  uint256 private contractorCredit = 0;\n  uint256 private contractorDebit = 0;\n\n  function Project(\n    string _name,\n    address _clientAddress,\n    uint256 _hourlyRate,\n    uint32 _timeCapMinutes,\n    uint32 _prepayFractionThousands)\n  public {\n    require(_prepayFractionThousands <= 1000);\n    name = _name;\n    clientAddress = _clientAddress;\n    hourlyRate = _hourlyRate;\n    timeCapMinutes = _timeCapMinutes;\n    prepayFractionThousands = _prepayFractionThousands;\n    contractorAddress = msg.sender;\n  }\n\n  modifier onlyContractor() {\n    require(msg.sender == contractorAddress);\n    _;\n  }\n\n  modifier onlyClient() {\n    require(msg.sender == clientAddress);\n    _;\n  }\n\n  modifier onlyAtState(State _state) {\n    require(state == _state);\n    _;\n  }\n\n  function start() external payable onlyClient onlyAtState(State.Created) {\n    // require(this.balance >= (hourlyRate * timeCapMinutes) / 60);\n    state = State.Active;\n    contractorCredit = getPrepay();\n    executionDate = now;\n    lastActivityDate = now;\n  }\n\n  function getRole() public view returns (Role) {\n    if (msg.sender == clientAddress) {\n      return Role.Client;\n    }\n    if (msg.sender == contractorAddress) {\n      return Role.Contractor;\n    }\n    return Role.Stranger;\n  }\n\n  function getPrepay() public view returns (uint256) {\n    uint256 priceCap = getPriceCap();\n    return (priceCap * prepayFractionThousands) / 1000;\n  }\n\n  function getPriceCap() public view returns (uint256) {\n    return (hourlyRate * timeCapMinutes) / 60;\n  }\n\n  function availableForWithdraw() public view returns (uint) {\n    if (state == State.Created) {\n      return 0;\n    }\n\n    Role role = getRole();\n\n    if (role == Role.Stranger) {\n      return 0;\n    }\n\n    assert(contractorCredit >= contractorDebit);\n    uint256 availableToContractor = contractorCredit - contractorDebit;\n\n    if (role == Role.Contractor) {\n      return availableToContractor;\n    }\n\n    if (role == Role.Client) {\n      assert(this.balance >= availableToContractor);\n      return this.balance - availableToContractor;\n    }\n\n    assert(false);\n  }\n\n  function setBillableTime(uint32 timeMinutes, string comment)\n    onlyContractor onlyAtState(State.Active)\n  external {\n    minutesReported = timeMinutes;\n    contractorComment = comment;\n    lastActivityDate = now;\n  }\n\n  function approve() external {\n    state = State.Approved;\n    endDate = now;\n    lastActivityDate = now;\n\n    uint256 approvedPrice = (hourlyRate * minutesReported) / 60;\n    if (approvedPrice > contractorCredit) {\n      contractorCredit = approvedPrice;\n    }\n  }\n\n  function cancel() onlyClient onlyAtState(State.Active) external {\n    state = State.Cancelled;\n    endDate = now;\n    lastActivityDate = now;\n  }\n\n  function withdraw() public {\n    lastActivityDate = now;\n    uint256 toBeSent = availableForWithdraw();\n    if (toBeSent > 0) {\n      if (getRole() == Role.Contractor) {\n        contractorDebit = contractorDebit + toBeSent;\n      }\n      msg.sender.transfer(toBeSent);\n    }\n  }\n\n  function leaveFeedback(bool positive, string comment) external {\n    require(state == State.Approved || state == State.Cancelled);\n    // TODO\n    lastActivityDate = now;\n  }\n\n}\n",
  "sourcePath": "/Users/sam/dev/projects/append-only-log/hackathon/contracts/Project.sol",
  "compiler": {
    "name": "solc",
    "version": "0.4.18+commit.9cf6e910.Emscripten.clang"
  },
  "schemaVersion": "1.0.1",
  "updatedAt": "2017-11-12T16:36:28.812Z"
}