{
  "contractName": "Project",
  "abi": [
    {
      "inputs": [],
      "payable": false,
      "stateMutability": "view",
      "type": "function",
      "constant": true,
      "name": "name",
      "outputs": [
        {
          "name": "",
          "type": "string"
        }
      ]
    },
    {
      "constant": true,
      "inputs": [
        {
          "name": "newValue",
          "type": "uint256"
        }
      ],
      "name": "value",
      "outputs": [
        {
          "name": "",
          "type": "uint256"
        }
      ],
      "payable": false,
      "stateMutability": "view",
      "type": "function"
    },
    {
      "inputs": [
        {
          "name": "newValue",
          "type": "uint256"
        }
      ],
      "payable": false,
      "stateMutability": "nonpayable",
      "type": "function",
      "constant": false,
      "name": "setValue",
      "outputs": []
    },
    {
      "inputs": [
        {
          "name": "_name",
          "type": "string"
        }
      ],
      "payable": false,
      "stateMutability": "nonpayable",
      "type": "constructor"
    }
  ],
  "bytecode": "0x6060604052341561000f57600080fd5b6040516102e83803806102e88339810160405280805182019190505060008054600181600116156101000203166002900480601f0160208091040260200160405190810160405280929190818152602001828054600181600116156101000203166002900480156100c15780601f10610096576101008083540402835291602001916100c1565b820191906000526020600020905b8154815290600101906020018083116100a457829003601f168201915b5050505050905050610210806100d86000396000f300606060405260043610610057576000357c0100000000000000000000000000000000000000000000000000000000900463ffffffff16806306fdde031461005c5780633fa4f245146100ea5780635524107714610113575b600080fd5b341561006757600080fd5b61006f610136565b6040518080602001828103825283818151815260200191508051906020019080838360005b838110156100af578082015181840152602081019050610094565b50505050905090810190601f1680156100dc5780820380516001836020036101000a031916815260200191505b509250505060405180910390f35b34156100f557600080fd5b6100fd6101d4565b6040518082815260200191505060405180910390f35b341561011e57600080fd5b61013460048080359060200190919050506101da565b005b60008054600181600116156101000203166002900480601f0160208091040260200160405190810160405280929190818152602001828054600181600116156101000203166002900480156101cc5780601f106101a1576101008083540402835291602001916101cc565b820191906000526020600020905b8154815290600101906020018083116101af57829003601f168201915b505050505081565b60015481565b80600181905550505600a165627a7a72305820015573666d666a828762d9599a6f1d119091de24ef15d26d4a3b5b7ac95d868e0029",
  "source": "pragma solidity ^0.4.18;\n\ncontract Project {\n\n  string public name;\n  uint public value;\n\n  function Project(string _name) public {\n    _name = name;\n  }\n\n  function setValue(uint newValue) external {\n    value = newValue;\n  }\n\n}\n",
  "sourcePath": "/Users/sam/dev/projects/append-only-log/hackathon/contracts/Project.sol",
  "compiler": {
    "name": "solc",
    "version": "0.4.18+commit.9cf6e910.Emscripten.clang"
  },
  "schemaVersion": "1.0.1",
  "updatedAt": "2017-11-10T17:31:00.049Z"
}